:020000040800F2
:100000000095002051020008232A0008D12800088A
:10001000212A0008D30B0008814D000800000000D1
:10002000000000000000000000000000332A00086B
:10003000B10E000800000000312A0008352A00082F
:100040006B0200086B0200086B0200086B020008DC
:100050006B0200086B0200086B0200086B020008CC
:100060006B0200086B0200086B0200086B020008BC
:100070006B0200086B0200086B0200086B020008AC
:100080006B0200086B0200086B0200086B0200089C
:100090006B0200086B0200086B0200086B0200088C
:1000A0006B0200086B0200086B0200086B0200087C
:1000B0006B0200086B0200086B0200086B0200086C
:1000C0006B0200086B0200086B0200086B0200085C
:1000D0006B0200086B0200086B0200086B0200084C
:1000E0006B0200086B0200086B0200086B0200083C
:1000F0006B0200086B0200086B0200086B0200082C
:100100006B0200086B0200086B0200086B0200081B
:100110006B0200086B0200086B0200086B0200080B
:100120006B0200086B0200086B0200086B020008FB
:100130006B0200086B0200086B0200086B020008EB
:100140006B0200086B0200086B020008252A0008F9
:100150006B0200086B0200086B0200086B020008CB
:100160006B0200086B0200086B0200086B020008BB
:100170006B0200086B0200086B0200080000000020
:100180006B0200086B02000800F002F800F051F862
:100190000AA090E8000C82448344AAF10107DA45E2
:1001A00001D100F046F8AFF2090EBAE80F0013F0E3
:1001B000010F18BFFB1A43F00103184750630000FA
:1001C00070630000103A24BF78C878C1FAD852078B
:1001D00024BF30C830C144BF04680C6070470000C1
:1001E0000023002400250026103A28BF78C1FBD840
:1001F000520728BF30C148BF0B607047752900F017
:100200004B81732900F00E84002070471FB506F063
:100210005FF99DE8030000F057FB00F087FC040045
:100220000020002106F03EF9401C60601FBD10B5A3
:1002300010BD00F056FC1146FFF7E8FF05F06CFF1B
:1002400000F078FC03B4FFF7F2FF03BC04F0A9FD53
:100250000948804709480047FEE7FEE7FEE7FEE75A
:10026000FEE7FEE7FEE7FEE7FEE7FEE70448054996
:10027000054A064B70470000C52A0008890100089E
:10028000008F0020009500200091002000910020A8
:10029000704770B5064600F0FBFA056806F10B00E2
:1002A00020F00704B4429CBF002070BD2B466A6852
:1002B000BAB11068A04210D304F1080188423CBFD3
:1002C0005068586007D35168101941601168091BC4
:1002D000016058601460101D70BD13465268002AFA
:1002E000E7D12146284600F0DBFA0028DED170BDB8
:1002F00070B50446051F00F0CBFA0068002C14BF4F
:10030000446870BD002C18BFAC423CBF20466468F6
:10031000F8D301680A18AA4218BF456003D12A68B9
:1003200005461144016028684119A1421CBF6C6058
:1003300070BD6168696021680844286070BD53EA37
:10034000020C00F069802DE9F04B4FF00006002B05
:100350001FBFB3FA83F503FA05F424FA05F65E40ED
:1003600012BF1643B2FA82F502FA05F4C5F1200570
:100370001EBF22FA05FC44EA0C04203556EA044C60
:100380004FEA144418BF641C4FF000084FF00009F6
:10039000904271EB030C39D3002919BFB1FA81F7F0
:1003A00001FA07F6B0FA80F700FA07F6C7F120075E
:1003B0001EBF20FA07FC46EA0C062037B6FBF4FC09
:1003C000A7EB0507103F07F01F0BCBF120060CFA37
:1003D0000BFB2CFA06F644BFB3460026202FA4BF21
:1003E0005E464FF0000B5BEA060C08BF4FF0010BB6
:1003F00019EB0B09ABFB027C48EB0608C01B06FBA4
:1004000002CC0BFB03CC71EB0C01C1E70B4602469F
:1004100041464846BDE8F08B13B54FF000004FF061
:100420000001AFF30080BDE81C4070470FB40449E1
:1004300010B503AA029800F0F9FA10BC5DF814FB9D
:100440001400002070B50C460546012A05D0287816
:10045000800600D5EA69002302E0012305E05B1C69
:10046000934202D2E05C0028F9D1A869E618C01ACC
:10047000A861286A184428622846AFF3008004E087
:10048000D5E9012114F8010B9047B442F8D328466E
:10049000AFF3008070BD00002DE9F0410646002456
:1004A00010687529314616A510D0AFF300800028DA
:1004B00002DA404213A507E031688A0701D512A588
:1004C00002E0490704D511A5012401E0AFF3008043
:1004D00000210A2206F1240709E0B0FBF2FCB0FB80
:1004E000F2F302FB1C00303078541846491C0028F7
:1004F000F3D123462A463046BDE8F04100F027BA42
:10050000000000002D0000002B0000002000000073
:100510002DE9F0410F460546002028622846E9688B
:10052000884770B3252805D0D5E901219047286A6E
:10053000401CF2E7E9682846002688476C280446F4
:100540000AD0682C08D04C2C35D06A2C31D0742CB1
:1005500031D07A2C2FD016E0E96806462846884725
:10056000B042044608D16C2E23D04FF48066284652
:10057000E9688847044606E06C2E03D04FF4807685
:1005800001E01EE04026E4B1A4F14100192802D8A0
:10059000203446F400663A46214628462E60FFF78E
:1005A0002DFE60B1012808D0FF1D27F0070708378E
:1005B000B4E78026DBE70026D9E73F1DAEE72046FB
:1005C000B2E7286ABDE8F0812DE9F0410E46054604
:1005D000002400E0641C285D00F0ACF90746305DA3
:1005E00000F0A8F9381A02D1295D0029F2D1BDE83E
:1005F000F08110B5431C02E010F8011B71B18107B6
:10060000FAD14FF0013202C88C1A8C4314EAC2119D
:10061000F9D0C01A0A0603D0C01E10BDC01A10BD02
:100620000A0401D0801E10BD0902FCD0401E10BD7E
:10063000032A40F2308010F0030C00F0158011F80E
:10064000013BBCF1020F624498BF11F801CB00F8E6
:10065000013B38BF11F8013BA2F1040298BF00F83A
:1006600001CB38BF00F8013B11F0030300F02580F7
:10067000083AC0F0088051F8043B083A51F804CB1E
:10068000A0E80810F5E7121D5CBF51F8043B40F8E4
:10069000043BAFF30080D20724BF11F8013B11F8EF
:1006A00001CB48BF11F8012B24BF00F8013B00F833
:1006B00001CB48BF00F8012B704710B5203AC0F0BD
:1006C0000B80B1E81850203AA0E81850B1E8185053
:1006D000A0E81850BFF4F5AF5FEA027C24BFB1E890
:1006E0001850A0E8185044BF18C918C0BDE8104001
:1006F0005FEA827C24BF51F8043B40F8043B08BF0A
:100700007047D20728BF31F8023B48BF11F8012BD0
:1007100028BF20F8023B48BF00F8012B70474FF07C
:1007200000020429C0F0128010F0030C00F01B80BE
:10073000CCF1040CBCF1020F18BF00F8012BA8BFCC
:1007400020F8022BA1EB0C0100F00DB85FEAC17C90
:1007500024BF00F8012B00F8012B48BF00F8012B43
:1007600070474FF0000200B5134694469646203974
:1007700022BFA0E80C50A0E80C50B1F12001BFF45A
:10078000F7AF090728BFA0E80C5048BF0CC05DF8C0
:1007900004EB890028BF40F8042B08BF704748BF0E
:1007A00020F8022B11F0804F18BF00F8012B704782
:1007B00010B5044610F0030F08BF11F0030F40F00E
:1007C00015804FF0013E121FC0F20E8051F8043B1D
:1007D000A3EB0E0C2CEA030C1CEACE1C08BF40F85D
:1007E000043BF0D0A1F1040102F10402521E08DB27
:1007F00011F8013B002B00F8013BF7D11146FFF740
:100800008EFF204610BD00004FF0013C50F8042B35
:1008100051F8043B9A4221D1A2EB0C03934313EA13
:10082000CC1317D150F8042B51F8043B9A4215D140
:10083000A2EB0C03934313EACC130BD150F8042B17
:1008400051F8043B9A4209D1A2EB0C03934313EAFB
:10085000CC13DBD04FF00000704700BFD01A01BAB4
:10086000B1FA81F101F0180122FA01F0CB40C1F197
:100870002001DBB2C0B2C01A2CFA01F3D11A9143A5
:1008800011EAC311E6D1704770477047704770474F
:1008900000487047A88E0020704770477047704727
:1008A00038B504460A4600206946AFF300800028A8
:1008B00008BF38BD02460099204600F0D5F8012057
:1008C00038BD012000F006B9F8B5AFF30080054649
:1008D00000200C46102000BF0646A819A0420DD9E2
:1008E000324669460020AFF30080070008BF00F0E1
:1008F000F1F80098A04218BF0546C419FFF7C8FFD9
:1009000005600746F01D20F007004619284600F054
:100910000AF8B44208BFF8BDA21B31463868BDE8EA
:10092000F84000F0A1B800210160C0E90110704753
:100930001020704710B5044600F08EF80068005D86
:10094000C00602D504F1200010BD204610BD2DE9DF
:10095000F0470D4699469246044600F12408016886
:10096000880604D5E06921F01001216000E0012033
:10097000A84201DD471B00E00027A1697A1902EBBC
:100980000900081AA0612078C00602D42046AFF3FF
:100990000080002608E0D4E901211AF806009047FB
:1009A000206A401C761C20624E45F4DB2078C0068D
:1009B0000AD52046AFF3008006E0D4E901213020BB
:1009C0009047206A401C2062381EA7F10107F4DC22
:1009D00007E0D4E9012118F805009047206A401C7F
:1009E0002062281EA5F10105F3DC2046AFF300804C
:1009F0002078000602D50220BDE8F0870120FBE741
:100A000010B5436913B1AFF3008001E0FFF71AFDA1
:100A1000012010BD127800F124010A7000224A70F2
:100A20000122EDE711684FF0FF32E9E7074B70B59F
:100A30000D467B4400F037F80446284600F046F89F
:100A400010B14FF0FF3070BD204670BD3B54000028
:100A500000487047A08E002010B500F067F8001D18
:100A600010BD00BF415A0000034640688C46002874
:100A700018BF88423CBF03464068F8D31868184442
:100A8000884207D00CF1030020F00700001D411A36
:100A9000521A0146081D0A60FFF72ABC01694A1C68
:100AA00002610878704700B58FB0CDE901310021AF
:100AB000059105497944CDE9031011466846FFF7D1
:100AC00027FD0FB000BD0000E5FFFFFF007B00F039
:100AD0008000704710B500F03BF8BDE8104000F012
:100AE00032B87546FFF7B4FFAE4605006946534677
:100AF00020F00700854618B020B5FFF7B7FBBDE82A
:100B000020404FF000064FF000074FF000084FF074
:100B1000000B21F00701AC46ACE8C009ACE8C00905
:100B2000ACE8C009ACE8C0098D4670470048704782
:100B3000C08E002010B50446AFF300802046BDE80B
:100B40001040FFF77FBB002801D004F02AB970479E
:100B500010B5012805D0002103A000F021F80120E4
:100B600010BD09A1F8E7000053494752544D454DC7
:100B70003A204F7574206F662068656170206D653E
:100B80006D6F7279000000003A2048656170206D39
:100B9000656D6F727920636F727275707465640031
:100BA00070B505460C460A2000E06D1C04F0FAF80A
:100BB00035B128780028F8D102E0641C04F0F2F87E
:100BC00014B120780028F8D1BDE870400A2004F064
:100BD000E9B8FEE77FB500200090019002900390F5
:100BE0006A4625A125A004F0A1FF25A16846FFF7CC
:100BF0000BFE18B126A0FFF719FC7FBD694628A09F
:100C0000FFF714FC01222BA12E4804F021FC70BB3D
:100C10002C482D49C06888422AD82C4800F0D0F9C9
:100C200010B100F047F902E029A0FFF7FFFB00F048
:100C300073F8244804F0BAFB28A0FFF7F7FB2C4E0A
:100C400000244FF47A7501220821304600F089FD16
:100C5000284600F0AFFB00220821304600F081FD5D
:100C6000284600F0A7FB641C032CECDB7FBDFFE7EC
:100C700000F084FBFAE700002E62696E00000000BD
:100C8000544D5F494D4147452E42494E00000000FA
:100C90006E6F2062696E2066696C650A0000000054
:100CA00066696E64202E62696E2066696C653A25FD
:100CB000730A0000746D5F696D6167652E62696E0D
:100CC0000000000018830020FC3F0F0000C0000857
:100CD0006572617365206F6B0A0000007072616756
:100CE00072616D6D656420646F6E650A00000000BE
:100CF00000040240BFF34F8F05480168054A01F424
:100D0000E06111430160BFF34F8F00BFFDE70000BA
:100D10000CED00E00400FA052DE9F843194C1848E1
:100D20000026606018480127A0604FF400486B4619
:100D3000454642461249154804F0D1FC009820600F
:100D40000644A84200D20027002509E06068415906
:100D5000A068284400F0D2F908B100F00FFB2D1D67
:100D600020688542F2D3A06821680844A060012F62
:100D7000DDD0314606A0FFF759FBBDE8F88300003F
:100D8000E80000202000002000C000081883002098
:100D900077726974652062797465733D256C750A94
:100DA000000000002DE9FE4324480027CDE9007033
:100DB00000F090F918B100F0E1FABDE8FE8320A040
:100DC00004F09DFD224E4FF4404430780228F4D1C7
:100DD0000A221BA11F4804F03BFB0028EDD11E4D49
:100DE000DFF878804FF400493078022808D019489D
:100DF00004F0DCFA00221146104604F0FDFADCE7AC
:100E000043464A46009700982044A8420CD2DDE9A8
:100E1000001000F1010CCDF804C00078585400987F
:100E2000401C00909042EED302AB0C49094804F0FC
:100E3000B5FD00980444AC42D6D3D8E700C0000802
:100E4000303A55504C4F41442E62696E000000000C
:100E500039000020E8800020FC3F0F00E80000205F
:100E600010B500224FEA020100EB8203521CC3F8C6
:100E70008413102AF8D300224FF400738418521CF4
:100E800084F81C119A42F9D30170417001228270DA
:100E9000C0F8C413027640238371417680F81C1396
:100EA00080F81D2380F81F1380F81E13002010BD4A
:100EB00070470000054D4FF400442146284600F0DD
:100EC00048FC642000F076FAF7E70000000C0240CE
:100ED00072B6FEE7002200F001B8000030B50E4BFC
:100EE000054601205C7A002C14D1587A1C54587A9B
:100EF00003EB800045605D7A03F108002A54587ABC
:100F0000421C5A72303008703A2048702F20887086
:100F1000CC70002030BD0000948E0020002229B14A
:100F200001291AD002291BD04FF440720E490B68D8
:100F300023F440730B600B6813430B600A6822F0C4
:100F4000F8020A600A68022303EBC00002430A6049
:100F5000086840F48030086070474FF48072E5E71D
:100F60004FF40072E2E70000103C024013480168B1
:100F700089050FD5016821F400710160016841F411
:100F800000610160016821F400610160016841F4C1
:100F900000710160016849050FD5016821F4806185
:100FA0000160016841F480510160016821F48051C1
:100FB0000160016841F4806101607047003C0240BB
:100FC00070B50E4DA84217D800F020F80C4C2060E8
:100FD000284600F01BF822680023811A0948491CA2
:100FE00061600360C0E902210221016104F108018E
:100FF00000F0F2F9002800D0012070BDFBFF0F08BF
:10100000000000209000002000F090BA0021A0F124
:1010100000634FF48042934243D3234B03449342F3
:1010200001D201213DE0214B0344934201D2022130
:1010300037E01F4B0344934201D2032131E01D4AA4
:101040000244B2F5803F01D204212AE01A4A8318F3
:101050004FF40032934201D2052122E0174B0344A2
:10106000934201D206211CE0154B0344934201D266
:10107000072116E0134B0344934201D2082110E0EC
:10108000114B0344934201D209210AE00F4B034460
:10109000934201D20A2104E00D4B1844904200D241
:1010A0000B2108467047000000C0FFF70080FFF7E3
:1010B0000040FFF70000FFF70000FEF70000FCF71C
:1010C0000000FAF70000F8F70000F6F70000F4F768
:1010D0000000F2F770B5074D07490024E868086181
:1010E000084600F0C5F9E868012800D1012420462F
:1010F00070BD00000000002074000020064A10B5FA
:10110000904207D80A4601460023022000F0D0F999
:10111000002800D0012010BDFBFF0F0808490A6815
:1011200022F440720A600A6842F004020A600A6807
:101130004FF4803343EA002002430A607047000006
:10114000103C0240064A136823F44073136013688E
:101150001360136843F001031360017070470000CF
:10116000103C0240094910B50C6824F440740C602E
:101170000C6844F440740C600C6844F001040C608A
:101180000260BFF36F8F436010BD0000103C02404F
:10119000074A136823F440731360136843F48073A1
:1011A0001360136843F0010313600180704700006F
:1011B000103C0240074A136823F44073136013681D
:1011C00043F400731360136843F00103136001607C
:1011D00070470000103C024017490868C2061748D3
:1011E00005D5C26942F01002C26110220A600A6885
:1011F000920605D5C26942F00802C26120220A6047
:101200000A68520605D5C26942F00402C261402252
:101210000A600A68120605D5C26942F00202C2617C
:1012200080220A600A68920705D5C26942F020024E
:10123000C2610220086070470C3C0240548E0020BE
:1012400070B5114904460020C86100F08FFA0646C7
:101250000E4D09E0601C07D024B100F087FA801B16
:10126000A04201D9032070BD2868C003F2D42868C9
:10127000C00701D001202860286810F0F200F2D0E9
:10128000FFF7AAFF012070BD548E00200C3C0240E5
:101290002DE9F04F324D334C87B02978012621B12A
:1012A000F703314801294AD13DE000222FA13048FF
:1012B00004F0A2F808B100F06FF82E703FE000BF14
:1012C000FFF7A2FEFFF786FC6868012805D0002220
:1012D0003946404600F045FA09E0FFF763FD06E0B5
:1012E0003946404600F035FAC82000F063F8514610
:1012F000484600F029FA0028207802D0022819D1A7
:1013000002E0022816D1EBE70220CDE90206CDF873
:1013100014B00490CDF800B005A9684600F05CF860
:10132000FFF7E8FC06E0DFF84C9080464FF4006AD7
:101330004FF0000B104802F0C3FA0028C0D120780B
:10134000002809D100F012FAB0F57A6F04D907B07D
:10135000BDE8F04F04F088BE07B0BDE8F08F000094
:101360002C00002039000020000C0240000000008A
:10137000488500200010024078870020054D4FF47A
:1013800000442146284600F0E4F9642000F012F8F9
:10139000F7E70000000C0240054D4FF400442146E1
:1013A000284600F0D6F9642000F004F8F7E70000C2
:1013B000000C024070B5044600F0D8F90546601CE8
:1013C00002D004480078044400F0D0F9401BA04249
:1013D000FAD370BD3C0000202DE9F04704462248B6
:1013E0000F46017E01290AD00121804601764CF288
:1013F00050394846FFF724FF020003D02FE00220B7
:10140000BDE8F0874FF0FF3038602068174D0128A5
:1014100001D0A6681CE0207C6168FFF77FFE48468B
:10142000FFF70EFF0246286820F00400286014E051
:10143000217C3046FFF772FD4846FFF701FF0200AE
:10144000286820F0FA00286001D03E6005E0761C94
:10145000D4E902100844B042EAD8FFF787FD002122
:1014600088F818101046CBE7548E0020103C02403C
:101470000F2101600D49098881600C4AAA21521E82
:101480001378CC2B0FD01278AA2A00D055210161F5
:101490000649891E0A6802F0E0020276097801F026
:1014A0000C0141617047CC21F1E70000163C02407D
:1014B0002DE9F0471B4E05461446307E1F468946EF
:1014C000012808D0012030764CF250384046FFF712
:1014D000B7FE18B114E00220BDE8F0879DB1012DE0
:1014E00016D0022D19D022463B464846FFF73AFE59
:1014F0004046FFF7A5FE0C490A6822F001020A6087
:1015000000213176E8E7E1B24846FFF71BFEEFE73E
:10151000A1B24846FFF73CFEEAE721464846FFF7FE
:1015200049FEE5E7548E0020103C024007490020A8
:101530000A68002A09DA054A054B0C3A1360054B84
:1015400013600968002900DA01207047103C02404E
:1015500023016745AB89EFCD2DE9F84FDFF8BCA13A
:101560000022012503264FF00F090AF1040BAAF10E
:10157000040E00BF0B6805FA02F42340A34270D1A9
:101580000F7907F00307012F01D0022F16D18768CA
:101590004FEA420806FA08FC27EA0C07D1F80CC00B
:1015A0000CFA08FC4CEA070CC0F808C04768A743CF
:1015B0000C79C4F3001494403C4344600C79E44338
:1015C000A4070AD0C4684FEA420C06FA0CF7BC43E1
:1015D0008F6807FA0CF72743C7600C7904F00304FF
:1015E000022C12D1D40800EB840CDCF82040570701
:1015F000FF0E09FA07F824EA0804D1F8108008FA67
:1016000007F848EA0408CCF8208004684FEA420C46
:1016100006FA0CF7BC430F7907F0030707FA0CF73B
:10162000274307604C6814F4403F70D03C4C276857
:1016300047F480472760246822F0030704F48044BD
:101640000094384C07EB040CDCF8084897074FEA85
:10165000177809FA08F7BC43334FB84202D1002784
:1016600024E054E0314FB84201D101271EE0304F51
:10167000B84201D1022719E02E4FB84201D1032709
:1016800014E02D4FB84201D104270FE02B4FB84290
:1016900001D105270AE02A4FB84201D1062705E00B
:1016A000284FB84201D1072700E0082707FA08F7BA
:1016B0002743CCF80878DAF800405746D1F804C040
:1016C0009C435FEACC2C00D51C433C60DBF8004017
:1016D0005F46D1F804C09C435FEA8C2C00D51C43C4
:1016E0003C60DEF800407746D1F804C09C435FEAD6
:1016F0008C3C00D51C433C60084F083F3C68D1F847
:1017000004C09C435FEACC3C00D51C433C60521CA7
:10171000102AFFF42FAFBDE8F88F0000083C01400D
:101720004438024000300140000002400004024002
:1017300000080240000C0240001002400014024069
:1017400000180240001C02400069084000D001203F
:101750007047426921EA02030A4043EA024181617B
:1017600070470AB1816170470904FBE7014880684E
:10177000704700003C000020D0F8000301F0A1BD3C
:10178000D0F8000301F0A7BD006803F017B80068A7
:1017900003F018B801EB410202EBC10100EB81003C
:1017A00090F86000704701EB410202EBC10100EBD1
:1017B0008100006D704710B5044690F8F8020128CA
:1017C00009D0012084F8F802206803F006F8002010
:1017D00084F8F80210BD022010BD2DE9FE43054635
:1017E000DDE90B7095F8F842DDF828C0012C1ED019
:1017F00001EB410404EBC1044FF0010905EB840443
:1018000085F8F892002684F83D6084F83830A4F812
:10181000400084F8391084F83F7002F07F0884F8A3
:101820003A805FEA026805D584F83B9004E0022024
:10183000BDE8FE8384F83B6084F83CC0CDF800C06E
:10184000CDE90170286803F02BF885F8F862EFE71E
:1018500070472DE9F00301EB4104DDE906C9DDE93C
:10186000087504EBC10400EB8404022684F83B20D5
:1018700084F83F30BCF1000F0AD084F842600025A4
:101880006BB1012B2FD0022B12D0032B16D10FE0FE
:101890004FF0030884F8428084F83D50EFE7BCF134
:1018A000010F0BD152B9DFB9012284F8552003E0B2
:1018B000B2B194F85420B2B184F84260C4F84490B4
:1018C000E76484F86050256584F8391084F8615025
:1018D000027C04F138010068BDE8F00303F069B848
:1018E00094F85520E7E784F84250E7E72DE9F04106
:1018F00006680446304602F06CFF012875D1206866
:1019000003F07BF9002870D0206803F076F980029C
:1019100003D521684FF400104861206803F06DF989
:10192000C00203D521684FF480104861206803F09D
:1019300064F9400103D521684FF080604861206858
:1019400003F05BF9800702D5216802204861206816
:1019500003F053F9800015D521684FF0005048611D
:10196000D6F84004C0070DD11021304602F006FF22
:10197000304602F0E5FE0121206803F023F92046FD
:10198000FFF7FEFE206803F038F9C00102D52046BB
:1019900000F00EFF206803F030F9000705D520465F
:1019A00000F0C7F8216808204861206803F025F995
:1019B000C043C0060CD42068816921F01001816108
:1019C000204600F03FFF2068816941F010018161ED
:1019D000206803F012F9800123D5206802F0E5FFAA
:1019E000074600254FF0010814E01AE005F00F014A
:1019F00008FA01F038420CD006EB4510D0F800058B
:101A0000E9B20004204602D500F0CFFC01E000F06E
:101A1000C1FD6D1CA068A842E8D821684FF0007095
:101A20004861BDE8F08170B58AB0040005D094F833
:101A3000F9022568002618B107E001200AB070BD40
:101A400084F8F862204600F027F8032084F8F902B1
:101A5000E86BC00500D42661206802F03DFE04F169
:101A6000100128220D466846FEF727FE94E80F0075
:101A700002F0D8FD0121206803F0FBF82822294656
:101A80006846FEF71AFE94E80F0003F033F80120D1
:101A900084F8F9020020D1E710B586B0044614217D
:101AA0006846FEF75EFE2068B0F1A04F2FD11948BE
:101AB0000021026842F001020260006800F00100AB
:101AC00005904FF4C05000900220CDE901010320A1
:101AD00003900A20049069460F48FFF73DFD0D482A
:101AE000001D016841F0800101600A48143001685E
:101AF00041F4804101600068002200F480400590BC
:101B00001146432000F0AAF8432000F099F806B0EF
:101B100010BD00003038024000000240D0F8000341
:101B200001F066BCD0F8000301F066BC006803F069
:101B300087B8D0F8000301F015BC10B5044690F842
:101B4000F80201280DD0012084F8F8020121206854
:101B500002F0DAFD206802F0EDFD002084F8F802C2
:101B600010BD022010BD10B5044690F8F8020128FF
:101B700009D0012084F8F802206803F0A8F80020BA
:101B800084F8F80210BD022010BD000002488168F0
:101B900002781144816070473C0000200B4810B56A
:101BA000016841F400710160016841F480610160E5
:101BB000016841F480710160032000F06FF80F208C
:101BC00000F006F800F024F8002010BD003C0240B0
:101BD00070B50D4D04464FF47A712878B1FBF0F0E2
:101BE0000A490968B1FBF0F000F00CFB48B9102C71
:101BF00007D200222146501E00F030F800206C6011
:101C000070BD012070BD00003C0000204800002095
:101C10000A4808B5016841F480410160006800F499
:101C2000804000900548001F016841F0805101602C
:101C3000006800F08050009008BD00004438024069
:101C4000002809DB00F01F020121914040098000BB
:101C500000F1E020C0F8001170470000F0B40E4B16
:101C60001B680C46C3F30223C3F10705042D00D9FA
:101C70000425191D072901D2002300E0DB1E0126DF
:101C800006FA05F1491E214099409E40761E1640F5
:101C90003143F0BC03F075B80CED00E0064900F0EC
:101CA000070208684FF6FF03184040EA0220034A83
:101CB00010430860704700000CED00E00000FA05DA
:101CC0002DE9F0470E46050065D0DFF81481D8F8FD
:101CD0000000F7B200F00700B04207D288F80070A9
:101CE000D8F8000000F00700B04254D128683D4CFD
:101CF000810712D5400703D5206840F4E0502060EA
:101D00002878000703D5206840F4604020602068F0
:101D1000A96820F0F000084320602878C0072DD083
:101D2000304968680839012812D0022813D00328E6
:101D300011D00968890700292DDA216821F00301F3
:101D400001432160FFF712FD814641F2883A0EE01F
:101D500009688903EFE709688901ECE7FFF706FDE9
:101D6000A0EB0901514502D90320BDE8F0872068A6
:101D7000696800F00C00B0EB810FEFD1D8F80010CB
:101D8000404601F00701B14207D90770006800F032
:101D90000700B04201D00120E7E72878400705D5C9
:101DA0002068E96820F4E0500843206028780007A4
:101DB00006D52068296920F4604040EAC10020600F
:101DC00000F038F82168084AC1F30311515CC8409B
:101DD0000649086006480068FFF7FAFE0020C4E7DD
:101DE000003C024008380240F0640008480000202F
:101DF000400000200448054900680968044AC1F30E
:101E00008221515CC84070474800002008380240D9
:101E1000006500080448054900680968044AC1F3E0
:101E20004231515CC84070474800002008380240E9
:101E300000650008154810B5006810F00C02144841
:101E400013D01449042A0FD0082A0ED10F4C241F96
:101E50002268236802F03F025B0207D52068C0F3C6
:101E60008810A0FB010106E0084610BD2168C1F3FF
:101E70008811A1FB00010023FEF761FA2168C1F37C
:101E80000141491C4900B0FBF1F010BD0838024087
:101E90000024F40040787D012DE9F84F04006ED055
:101EA0002078DFF84C93C007A9F104054AD009F166
:101EB00004000168C1F38101012908D00068C0F362
:101EC000810002280AD1D9F80000400206D528680E
:101ED000800337D560680028E1D033E06068B0F552
:101EE000803F10D0B0F5A02F286810D020F48030AB
:101EF0002860286820F4802028606068A8B1FFF777
:101F000035FC06460DE0286840F48030F4E740F4E4
:101F100080202860F7E700BFFFF728FC801B6428BB
:101F200073D828688003F7D50CE0FFF71FFC06463E
:101F300005E000BFFFF71AFC801B6428F0D8286872
:101F40008003F7D42078DFF8AC8280074FF0000AD6
:101F50003ED5A748001D016811F00C0F08D000689D
:101F6000C0F3810002280BD1D9F80000400207D449
:101F70002868800716D5E068012800D112E033E117
:101F8000E068B8B10120C8F80000FFF7EFFB064693
:101F900005E000BFFFF7EAFB801B0228C0D82868D5
:101FA0008007F7D52868216920F0F80040EAC100D1
:101FB00028600DE0C8F800A0FFF7D8FB064604E053
:101FC000FFF7D4FB801B02281FD828688007F7D4AE
:101FD0002078000722D5864F87486169703771B134
:101FE00001210160FFF7C2FB064604E0FFF7BEFBDC
:101FF000801B022809D838688007F7D50EE0C0F8A2
:1020000000A0FFF7B3FB064605E082E0FFF7AEFB5A
:10201000801B02287DD838688007F7D420784007D5
:1020200068D5DFF8CCB100270BF13C0BDBF80000E2
:10203000C0000BD4DBF8001041F08051CBF8001049
:10204000DBF80000012700F0805000906B4E3068F4
:10205000C00510D4306840F480703060FFF786FB14
:10206000009005E0FFF782FB0099401A022850D843
:102070003068C005F6D55E4EA0686C3601280FD0DA
:102080000528306810D020F001003060306820F062
:1020900004003060A068B8B1FFF768FB00900FE063
:1020A000306840F00100F4E740F004003060F7E7EA
:1020B000FFF75CFB0099411A41F28830814266D8F3
:1020C00030688007F4D50EE0FFF750FB009007E082
:1020D000FFF74CFB0099411A41F28830814256D8F3
:1020E00030688007F4D42FB1DBF8001021F0805164
:1020F000CBF80010A069C8B33D49091D0968C1F3B8
:10210000810102294AD00228504607D0C8F8600051
:1021100000E03CE0FFF72AFB04463BE04746C8F8F6
:102120006000FFF723FB064605E000BFFFF71EFB3C
:10213000801B02282BD828688001F7D4D4E9070136
:102140000843A16A2E4A490802EB0141626A41EA4A
:102150008211084394F82C1040EA0161C9F800107C
:1021600001203866FFF702FB044606E03EE000BFB0
:10217000FFF7FCFA001B022809D828688001F7D570
:1021800034E000BFFFF7F2FA001B022802D9032057
:10219000BDE8F88F28688001F4D427E00128F7D043
:1021A000D9F80000E26900F4800191421CD1226A52
:1021B00000F03F01914217D147F6C071626A0140B9
:1021C000B1EB821F10D1A26A4FF0FF3300F440310F
:1021D00003EB5202B1EB024F06D194F82C1000F041
:1021E0007060B0EB016F01D00120D1E70020CFE794
:1021F0000438024000004742800E47420070004011
:102200000000FFFF10B5401EB0F1807F01D3012018
:1022100010BD4FF0E02460610F21601702F0B1FDA6
:102220000020A06107202061002010BD70B50400CF
:1022300004D094F83D00002510B106E0012070BDE7
:1022400084F83C50204600F023F8242084F83D0018
:102250002068C16821F40051C160204600F03AFCBA
:102260002068016921F4904101612068416921F0F1
:102270002A0141612068C16841F40051C1602564B0
:10228000202084F83D0084F83E00002070BD00004E
:1022900010B586B0044614216846FEF762FA134969
:1022A0002068884220D112480021026842F400329E
:1022B0000260006800F4003005900D481038026894
:1022C00042F001020260006800F0010005900C205D
:1022D00000900220CDE90101032003900720049023
:1022E00069460448FFF738F906B010BD00440040C5
:1022F00040380240000002402DE9F843044690F8BF
:102300003D001F4616460D4620284CD1C5B1BEB132
:1023100094F83C00012846D0012084F83C004FF09E
:102320000008C4F84080212084F83D00FFF71EFA21
:10233000A6848146E684A068B0F5805F03D004E0FF
:102340000120BDE8F883206928B12E465FF0000522
:1023500084F83C800EE00026FAE78021204600F059
:102360003FFCA0B9AEB116F8010B21684860E08CC3
:10237000401EE084E08C4B464FF00002009700289E
:10238000EBD14FF04001204600F02AFC30B1032091
:10239000D7E735F8020BC0F30800E6E7202084F801
:1023A0003D000020CDE70220CBE72DE9F0470746AE
:1023B00000680D4600EB4116D6F8080501EB410315
:1023C000420703EBC5014FF006004FF004084FF041
:1023D000050A07EB810401D541463CE0D6F8081513
:1023E000C90507D54FF48070C6F80805072084F8A2
:1023F00061001CE0D6F80815890603D52020C6F830
:10240000080518E0D6F808150A074FF0080104D5AA
:10241000C6F8081584F861A009E0D6F80825520529
:1024200014D54FF48060C6F8080584F86110294679
:10243000386802F0D2F9D6F8080580050ED529468D
:10244000386802F0CAF94FF40070A0E0D6F8081519
:102450000906F0D58021C6F80815C8E7D6F80805A2
:102460004FF00001C0074FF010094FF001023BD0C0
:10247000386930B1A06CD6F81035C3F31203C01A16
:10248000206584F86120E165C6F8082594F83F00CE
:1024900030B1022804D0032809D0012807D012E067
:1024A0002946386802F099F9C6F808950BE0D6F885
:1024B000000540F00050C6F8000584F86020294669
:1024C0003846FFF7C5F93869012806D1B4F840103D
:1024D000A06CB0FBF1F0C00704D014F8540F80F0EA
:1024E00001002070BDE8F087D6F80805800735D5D3
:1024F00094F86100022301280AD005280BD0062891
:102500000CD008280AD003280FD0072818D01CE0C8
:1025100084F8602019E084F860A016E0E06D401CAB
:10252000E065022801D9E1650DE084F86030D6F855
:10253000000520F0804040F00040C6F8000504E0AF
:10254000E06D401CE06584F86080C6F8083594F8BA
:10255000602029463846FFF77BF9C3E7D6F808051F
:10256000C006BFD594F83F00032803D020B102284D
:1025700002D00BE0E16505E0E165386930B9032080
:1025800084F861002946386802F027F94846C6F801
:102590000805A7E72DE9F047026802EB4114D4F8DB
:1025A000082501EB4103550703EBC1034FF004027B
:1025B0004FF0060A00EB830304D5C4F8082583F81E
:1025C00061A051E0D4F808554FF00007AD064FF078
:1025D000020C0BD52022C4F8082593F83D20012ACF
:1025E00033D183F83D7083F860C03DE0D4F80855DE
:1025F000AD0504D54FF40072C4F8082534E0D4F8D2
:1026000008554FF001065FEAC5784FF040050DD040
:10261000DF65D4F80825520603D583F83D60C4F879
:102620000855C4F8086583F861601DE0D4F8088592
:102630005FEA48680BD583F8612083F83D60DF6569
:10264000006802F0CAF8C4F80855BDE8F087D4F86D
:1026500008554FF008095FEA05784FF0050508D5E1
:10266000C4F8089583F861500068BDE8F04702F0AF
:10267000B4B8D4F808855FEAC86810D50322DF65CE
:1026800083F8612093F83D2022B993F83C200AB9E1
:1026900083F83D60006802F0A0F810201AE0D4F83A
:1026A00008855FEA086818D5056955B1DD6D6D1CB0
:1026B000DD65022D0BD9DF6583F86020FFF7C8F8D0
:1026C00007E083F861A0006802F087F801E083F872
:1026D00060C08020C4F80805B7E7D4F808855FEA31
:1026E000485807D583F86190006802F076F84FF4F7
:1026F0008060EFE7D4F808855FEA8878A5D593F87D
:102700006180B8F1010F0FD0B8F1030F30D0B8F1EC
:10271000040F2DD0B8F1050F2DD0B8F1060F2DD034
:10272000B8F1080F2AD03CE083F8606093F83F20AE
:10273000022A01D0032A34D102692AB993F855201C
:1027400082F0010283F855200269012A29D1DA6C4E
:102750003AB3B3F840502A44521EB2FBF5F2D20706
:102760001FD093F8552082F0010283F8552018E01D
:1027700083F860C015E083F8605012E0DD6D6D1CD9
:10278000DD65022D03D9DF6583F8602009E083F859
:1027900060C0D4F8002522F0804242F00042C4F824
:1027A0000025C4F808C593F86020FFF751F84CE7FE
:1027B0007CB504680546D4F840040190D4F8400480
:1027C00020F02E0000900198800709D50198C007DD
:1027D00002D02846FEF7D0FF009840F0020000909B
:1027E0000198000724D5009840F008000090019857
:1027F00040071AD5A869022803D0E86801280CD040
:102800000FE00198C0F341400228286803D001215D
:1028100002F0D8F905E00221FAE74EF66020C4F88C
:1028200004042846FFF77EF902E02846FFF776F910
:1028300001988006009802D540F020000090C4F86E
:1028400040047CBD2DE9F041024600680646016A5D
:10285000C1F3434301F00F07C1F30A15022B31D135
:10286000002D2FD007EB470101EBC70102EB8104DC
:10287000616C002926D0226DE36C2A449A4223D849
:102880002A4602F0BEF9606C28446064206D28443A
:10289000206506EB4710D0F81015B4F84020C1F3BE
:1028A000C941AA420ED100290CD0D0F8001521F060
:1028B000804141F00041C0F8001514F8540F80F039
:1028C00001002070BDE8F081042084F86000F9E781
:1028D000FEE7000010B504490448FEF7FBFA024980
:1028E000491E087010BD000035000020DC6400089F
:1028F00070B586B014216846FDF733FF23480024E5
:10290000016841F001010160016801F001010591D8
:10291000016841F010010160016801F010010591AA
:10292000016841F008010160016801F008010591AA
:10293000016841F0020101600068154E00F00200DC
:102940004FF400450590002229463046FEF709FF66
:102950004FF44060CDE9000469460E480294FEF74A
:10296000FBFD00950125CDE90154694630460394ED
:10297000FEF7F2FD08200090CDE9015469460648B3
:102980000394FEF7E9FD06B070BD00003038024048
:10299000000C024000100240000402400C4810B538
:1029A0000A4901604FF4E1314160002181600C224D
:1029B000C160C0E904128161C161FFF737FC0028E2
:1029C00003D0BDE81040FEF783BA10BD00440040BC
:1029D000A400002010B501220B490C4800F049FC6E
:1029E00008B1FEF775FA0A49084801F035FD08B14B
:1029F000FEF76EFA054801F072FD002803D0BDE82D
:102A00001040FEF765BA10BDF54400087887002035
:102A100054000020014801F001BC0000788700202C
:102A2000FEE7FEE70148FEF761BF0000508B002083
:102A300070477047FFF7AAB810B592B030216846CA
:102A4000FDF78FFE14210CA8FDF78BFE1B48002418
:102A5000016841F080510160006800F080501190E1
:102A60001748016841F4804101600068012100F4C9
:102A70008040119002200391102100900491069053
:102A8000CDE90741C021CDE9091004200B9068462B
:102A9000FFF702FA08B172B6FEE70F20CDE90C0489
:102AA0000E940F9400210CA81094FFF709F9002848
:102AB00001D072B6FEE712B010BD000040380240EF
:102AC000007000400248016841F4700101607047E5
:102AD00088ED00E070B5044600680169E26821F401
:102AE0004051114301612169A068E26908436169AD
:102AF000114308432168CA6849F20C639A430243B0
:102B0000CA6020684169A26921F4407111434161A2
:102B100031492068884202D03049884202D1FFF70B
:102B200079F901E0FFF766F9E269002319216425CC
:102B30003226B2F5004F626828D0A0FB0101930F46
:102B40009200FDF7FCFB0146B0FBF5F06FF01802B8
:102B5000504301EB800006EB0010B0FBF5F000F0F5
:102B6000F002B1FBF5F002EB0012B1FBF5F06FF0F3
:102B70001803584301EB800006EB0010B0FBF5F0A2
:102B800000F00F0021681044886070BDA0FB0101B7
:102B900092185B41FDF7D3FB0146B0FBF5F0020153
:102BA000B1FBF5F06FF01803584301EB800006EB22
:102BB000C000B0FBF5F000F0F80002EB4002B1FB02
:102BC000F5F0584301EB800006EBC000B0FBF5F0D8
:102BD00000F00700D6E7000000100140001401409B
:102BE0002DE9F041984617460E460446069D27E01B
:102BF000681C25D02DB1FEF7B9FDA0EB0800A84256
:102C00001ED920680C3050E8001F21F4D07140E834
:102C10000012002AF5D12068143050E8001F21F07E
:102C2000010140E80012002AF5D1202084F83D007F
:102C300084F83E00002084F83C000320BDE8F081C9
:102C40002068006836EA000004D00020B842CFD0E7
:102C50000020F3E70120F9E710B500224FF6FF73DB
:102C600000EB8204B4F8844324040BD49A4207D0C6
:102C700002F00F0300EB830041F40041C0F884131D
:102C8000D0B210BD521CD2B2102AE9D31A46F7E7CF
:102C90007FB51C46012501AE0023009586E80E0095
:102CA00002232A46214600F0DBFB04B0002070BD61
:102CB0007FB51D4690F81D33089C03B10024012305
:102CC000CDE90031CDE9022402230022294600F09B
:102CD000C7FB04B0002070BD10B500F0E9FA002079
:102CE00010BD8278012A07D10222027401224274A7
:102CF000002242828182C2820022114600F00FB877
:102D00007FB51C46012501AE0023009586E80E0024
:102D10002A46214600F0A4FB04B0002070BD70B527
:102D200004460120A3780546012B0BD0022B08D1C5
:102D3000204600F020F958B1032809D0022800D11C
:102D4000A57070BDA160A28125760221A17070BD21
:102D5000A5700021217670BD7FB51D4690F81D330A
:102D6000089C03B100240123CDE90031CDE9022400
:102D700000231A46294600F073FB04B0002070BD02
:102D80001FB500231446CDE900310822CDE9022306
:102D90001A46214600F064FB04B0002010BDFEF787
:102DA00009BB000070B50546002005F54E7500BF53
:102DB00000EB800404EBC00405EB4404E67B0A341A
:102DC0008E4201D0FF2909D1A679964201D0FF2A6F
:102DD00004D1E4799C4206D0FF2B04D0401CC0B241
:102DE0000228E5D3FF2070BD102907D200EB810037
:102DF000B0F88413C1F30E01C0F8841300207047AB
:102E000030B48578029C012D0FD141F0800101740E
:102E10000621417403214282B1EB122F02D140F20C
:102E2000094100E000218182C482224630BC19465B
:102E3000FFF775BF0A8803781A440A8001780844AE
:102E40007047F8B50E4600F11C0400910546234674
:102E50004FF400720021FFF7D3FF002806D132465D
:102E600021462846BDE8F84001F0FAB8F8BD38B56B
:102E70000D460091044600F58E734FF480720021D8
:102E8000FFF7BEFF010044D194F81C0184F826032B
:102E900094F81D0184F82703B4F81E01A4F8280350
:102EA00094F8200184F82A0394F8210184F82B0374
:102EB00094F8220184F82C0394F8230184F82D035C
:102EC000082806D0102804D0202802D0402800D09E
:102ED000402084F82D03082D1BD9B4F82401A4F850
:102EE0002E03B4F82601A4F83003B4F82801A4F89E
:102EF000320394F82A0184F8340394F82B0184F8FF
:102F0000350394F82C0184F8360394F82D0184F8E5
:102F10003703084638BDF8B51C461646009341F401
:102F2000407200F58E731D460021FFF769FF0028EF
:102F300014D16978032911D129788A1EA24200D8B8
:102F400014460021A2B2AD1C04E06B5C891C06F89B
:102F5000013B89B29142F8D300213170F8BD0100E4
:102F60004FF0000004D0012901D0022901D0022035
:102F70007047012070472DE9F84F0125017E044676
:102F80000B26092728464FF007084FF0050A4FF097
:102F90000D090C2919D2DFE801F0B4060E26313CE8
:102FA00048606B7C899A627904F110012046FFF732
:102FB000E7FE022012E06179204600F0CFF90128F7
:102FC00004D0042871D002287FD09AE0207CE18AC6
:102FD00000F0800021B180283AD10320207690E0D3
:102FE000802814D02EE0D4F8C403E0812379A2898C
:102FF0002046A168FFF784FE0420EFE721792046F0
:1030000000F0ACF9012802D0052840D056E0277620
:1030100077E000906379A2892046A168FFF79CFEC3
:10302000D4F8C403E0810620D8E76179204600F097
:1030300095F9012806D0052807D0022808D00428D1
:1030400009D05EE084F818805BE00C2020761EE05A
:1030500084F818A055E0267652E000222379114624
:103060002046FFF74DFED4F8C403E0810820B5E701
:103070002179204600F072F9012804D0042824D0D8
:10308000052804D03DE084F81890002539E0032598
:1030900037E000900022637911462046FFF75CFE7E
:1030A000D4F8C403E0810A2098E70EE06179204655
:1030B00000F054F9012804D00228A8D0042804D034
:1030C0001FE0002584F818901BE0267619E0617E49
:1030D000491CC9B26176022902D82076A07010E09E
:1030E000D4F8D423062120469047002565766179DF
:1030F0002046FFF779FE21792046FFF775FE2570FF
:1031000002252846BDE8F88F2DE9FE430446012636
:10311000407800250D27B04604F58E7208280CD2A1
:10312000DFE800F0042A3C686F8692990821204667
:10313000FFF79DFE10B103280DD097E094F82D0302
:10314000A07184F8018094F81D130091CDE901501D
:1031500094F81C3338E094F81E03401CC0B284F885
:103160001E03032818D861792046FFF73DFE217918
:103170002046FFF739FE59E012212046FFF777FE7F
:10318000A8BB022047E000BF94F81E03401CC0B259
:1031900084F81E03032840D9277067E001212046E8
:1031A00001F073F910B1032822D05FE00220FFF78D
:1031B000F6FD84F81C8303206070A07994F81D1339
:1031C000CDE900154346029021798022204600F087
:1031D0003DFFA07994F81D130091CDE9015094F8BA
:1031E0001C3361790022204600F030FF3EE00EE003
:1031F00027702EE009212046FFF723FE38B904206E
:1032000009E0B4F83A132046FFF71BFE10B103287B
:10321000BAD02BE00520607028E061792046FFF7E6
:10322000E3FD21792046FFF7DFFD657025701DE085
:1032300094F8341306250AE0FF232046FFF76BFEBF
:1032400038B1032805D011E094F83513072500297B
:10325000F2D165700AE094F8361331B1FF232046AD
:10326000FFF759FE08B1032800D100263046BDE81B
:10327000FE8370B50E46040018D084F8CC230025D8
:10328000C4F87C53C4F8805304F54874FDF7E8FD96
:10329000E57025706570A570A4F548740EB1C4F88A
:1032A000D463204600F06EF8002070BD022070BD8F
:1032B00010B5D0F8D003FEF77EFABDE81040FFF756
:1032C0004EBE012180F82013002180F8211380F8E0
:1032D00022130846704710B50446012084F82103E4
:1032E000002084F8200384F82303204600F0AFF880
:1032F00021792046FFF778FD61792046FFF774FDBC
:10330000002010BD10B5C820FEF754F8002010BDF5
:10331000D0F8D003FEF747BA10B50124D0F8D00397
:10332000FEF735FA20B1012805D0022803D101E0CB
:10333000002400E00224204610BDD0F8D00301EBA9
:10334000410202EBC10100EB810090F83B1011B18A
:1033500090F85400704790F855007047D0F8D003AB
:10336000FEF718BAD0F8C413491CC0F8C41301788A
:103370000B2905D1D0F87C13002901D089690847B1
:103380007047000010B5044690F8CC0301281CD10A
:103390000F484FF0A0410022C0F80043C4F8D0030A
:1033A0000160082181600121C0E903120221C0E906
:1033B0000612FEF738FB08B1FDF78AFD0448FEF758
:1033C000E3F90146204600F024F8002010BD00007B
:1033D000508B0020FEB508AF97E870008DE87000B4
:1033E000D0F8D003FEF7F9F9BDE8FE40FFF7B7BD0E
:1033F000002180F823137047012180F823137047C0
:1034000010B5D0F8D003FEF791FBBDE81040FFF7F0
:10341000A6BDC0F8C4137047D0F8D00301EB410338
:1034200003EBC10100EB810090F83B1011B180F873
:10343000542001E080F855200020704710B5D0F8E6
:10344000D003FEF77AFBBDE81040FFF788BD10B54A
:10345000D0F8D003FEF787FBBDE81040FFF77FBD33
:103460002DE9FF410DF1280898E8F0008DE8F00003
:10347000D0F8D003FEF7EDF904B0BDE8F041FFF756
:103480006EBD03460220D3F87C13C9692AB1012A14
:1034900005D189791846FFF724BCC979FAE7704746
:1034A000D0F87C030549C069416505498165012162
:1034B00000F8501F817000207047000055534243B0
:1034C000504030202DE9F84F0746D0F87C03012604
:1034D0003546C4694FF00B0A4FF00A0B94F85000C0
:1034E0004FF009094FF007080C2845D2DFE800F03B
:1034F000D20611252E4852757EA7AFCB84F86110F5
:10350000022084F85000009563791F2204F15401D1
:1035100059E061793846FFF721FF012802D00228DF
:103520007ED03FE0E06D002829D094F860000006CE
:1035300001D503204BE0052049E023796289384614
:10354000D4F88C10FFF7A4FB042040E02179384622
:10355000FFF704FF01284FD16289E06D90420CD93A
:10356000D4F88C10801A1144C4F88C10E0656BD02C
:1035700023793846FFF78CFB8CE00020E06563E0A0
:103580000095637922893846D4F88C10FFF790FBB8
:1035900006201CE061793846FFF7E0FE012804D0E0
:1035A0000228C8D0052815D074E02289E06D904229
:1035B000E3D9D4F88C10801A1144C4F88C10E0655B
:1035C00042D0009563793846FFF772FB62E084F8D9
:1035D00050005FE084F850B05CE023790D2204F1E4
:1035E00078013846FFF754FB0820F0E72179384688
:1035F000FFF7B4FE012802D005281DD04AE004F8E8
:10360000505F3846A570D7F87C13CC692179FFF755
:103610007FFE0D280CD12149A06F884208D100E01F
:1036200036E0A16DE06F884202D194F8840008B1C1
:1036300002262FE000262DE084F850902AE0002298
:103640003846FFF71EFF38B984F8508022E0012287
:103650003846FFF716FF10B1042811D01AE061793F
:103660003846FFF76AFEC0F10100C2B26179384600
:10367000FFF7D2FE217900223846FFF7CDFEDBE7C7
:1036800084F850A006E0384600F015F8060001D195
:1036900084F850503046BDE8F88F0000555342532F
:1036A000A1220274FE2242740022428282820122FE
:1036B000C282FFF734BB21210174FF214174002134
:1036C00041828182C1820A46FFF729BB70B5D0F8DA
:1036D0007C130125CC69A17B21B1022902D00329E9
:1036E0002ED127E02146FFF7DBFF00210546032806
:1036F00001D01DB124E02170002504E020780228CB
:1037000001D9022001E02078401C20700020022313
:103710000CE000BF00EB800202EBC00204EB82026F
:10372000401C82F8923082F8C110C0B222788242E6
:10373000F0D805E00021FFF7D4FA08B9E07BA073C8
:10374000284670BD10B51446D0F87C230078D369A4
:103750000B2801D0022010BD01EB810000EBC1005D
:1037600003EB8001342220469031FCF7A6FF0020B5
:1037700010BD70B50546D0F87C030026C469617998
:1037800039B12846FFF7A8FA61792846FFF72CFBE4
:103790006671217939B12846FFF79EFA21792846CA
:1037A000FFF722FB2671D5F87C03C06920B1FCF736
:1037B0009FFDD5F87C03C661002070BDFEB50546AF
:1037C000D0F87C035023062201792846FFF7EAFA55
:1037D0000646FF2823D0022E21D20146284600F0BB
:1037E00049FEE0B94FF480773846FCF752FDD5F832
:1037F0007C130446C861200011D03946FCF7B1FFA4
:1038000006EB860000EBC60005EB400090F84E1377
:103810000A0606D5E171B0F85013618105E0022077
:10382000FEBDA171B0F85013218190F856130A061D
:1038300004D5E171B0F85803608103E0A171B0F8DC
:1038400058032081002020736073A073A17928465B
:10385000FFF702FA6071E1792846FFF7FDF9207160
:103860002846FFF71DFEA27942B3208930B395F8B0
:103870001D1302260091CDE9016095F81C33617992
:10388000284600F0E3FBE279C2B16089B0B195F857
:103890001D130091CDE9016095F81C33217928466C
:1038A00000F0D4FB217900222846FFF7B5FD6179AD
:1038B00000222846FFF7B0FD0020FEBD0320FEBD1C
:1038C000D0F87C130078C9690B2802D1087B012845
:1038D00000D0002070472DE9F0470746D0F87C0360
:1038E0004FF0010AC469207B10B101282DD12CE1D1
:1038F000B4F8F800217801254FF0000888426FD213
:1039000000EB800101EBC00004EB8000022680F890
:103910009150B4F8F8004FF0050900EB800101EB7D
:10392000C00104EB810292F8901009290DD2DFE862
:1039300001F0050C1F880DB10C0CFF00042082F86B
:103940009000D7F8C403C4F8FC0000E1C1B23846C7
:103950009F3200F08BF940B9B4F8F80000EB800119
:1039600001EBC00004EB8000B6E002287DD099E0B6
:10397000C1B2384600F0AAFA10B1022831D091E065
:10398000B4F8F80000EB800101EBC00004EB80000C
:1039900090F8921011B180F8C15001E080F8C18018
:1039A000B4F8F820032002EB820101EBC20104EB22
:1039B000810181F89000B4F8F81001EB810202EB6C
:1039C000C10104EB810181F89180B4F8F81001EB9A
:1039D000810202EBC10104EB810181F89280B6E023
:1039E000AAE0B4F8F80000EB800101EBC00004EBA2
:1039F000800090F89210022902D080F8C15001E0B6
:103A000080F8C180B4F8F81001EB810202EBC1012B
:103A100004EB810181F89090B4F8F80000EB80018C
:103A200001EBC00004EB800080F89150B4F8F8007E
:103A300000EB800101EBC00004EB800080F8926095
:103A400085E0C1B23846943200F0BAF900288CD132
:103A5000B4F8F80000EB800101EBC00004EB80003B
:103A600080F89050B4F8F81000E008E001EB810213
:103A700002EBC10104EB810181F8918031E0B4F8DF
:103A8000F81001EB810202EBC10104EB810181F826
:103A900090905CE0C1B238469C3200F0CEF920B183
:103AA000022823D004282DD051E0B4F8F80000EB10
:103AB000800101EBC00004EB800090F89C10062907
:103AC00001D002290BD1D7F8C413D4F8FC20891AED
:103AD00042F21072914202D280F8906037E080F892
:103AE000905034F8F80F401C208030E0B4F8F81003
:103AF000082001EB810202EBC10104EB810181F896
:103B0000900024E0B4F8F80000EB800101EBC00065
:103B100004EB800080F89050B4F8F80000EB8001CE
:103B200001EBC00004EB800080F891600FE0FFE73C
:103B3000401CA4F8F8000AE0A4F8F8802573D7F830
:103B4000D42302213846904701E04FF0000A504646
:103B5000BDE8F0872DE9F843D0F87C2301EB810321
:103B600003EBC103D269012502EB8304082794F813
:103B700090302E46052B22D000224FF00508062B50
:103B800002D0072B2AD10CE0002300921A4600F045
:103B9000D7F80BE002280FD018E000BF84F890702F
:103BA0001BE0002300921A4600F0B6F90028F1D17C
:103BB00084F89060002511E084F890800EE004F114
:103BC0009C0200F03AF920B1022807D00428E5D081
:103BD00004E004F8906F0220607002252846BDE8DA
:103BE000F8832DE9F8430446D0F87C03089E0F467D
:103BF000C56994F8200360B120780B2809D107EB40
:103C0000870000EBC70005EB800090F890100129B9
:103C100002D00220BDE8F8830621297380F89010B5
:103C2000A5F8FA7039462046009600F089F8D4F8D5
:103C3000C48340F271204FF00109464309E0D4F8F3
:103C4000C413A1EB0800B0EB061F0CD894F82003B6
:103C500048B139462046FFF77DFF0128EFD085F8AF
:103C60000C900020D6E785F80C90D2E72DE9F041C2
:103C70001546D0F87C2302270026D4694FF00108AE
:103C800094F85220012A02D0022A56D126E024209C
:103C90008022E06584F860200A2284F86220C4F85B
:103CA0006360C4F86760A4F86B60122284F8632034
:103CB000490184F8641084F8656084F8666084F8CB
:103CC000670084F86860022084F8508084F852000D
:103CD00004F110000127C4F88C002EE0FFF7F2FB7E
:103CE00007002AD122212846FCF719FDD4F88C00C0
:103CF000007800F01F006870D4F88C00007840094C
:103D00002870D4F88C004078000602D585F802802F
:103D100000E0AE7054F88C0F10228168C5F80310D3
:103D2000C068C5F80700216805F10C001031FCF7E8
:103D30007FFC2068006AC5F81D003846BDE8F081A8
:103D40002DE9F041154602461F46D2F87C33022089
:103D5000069EDC6994F85230012B06D0022B2DD13F
:103D6000BDE8F0411046FFF7ADBBB4F89800102154
:103D70007043E065802084F860000A2084F86200C7
:103D800004F16300FCF7CBFC282084F86300280EC4
:103D900084F86500280C84F86600280A84F8670017
:103DA00084F86850300A84F86A0084F86B60012057
:103DB00004F8500F0220A0700120E763BDE8F081F5
:103DC00070B51646D0F87C230125D46994F85220AA
:103DD000012A02D0022A2ED11AE00820E0658020B4
:103DE00084F860000A2084F86200102104F1630066
:103DF000FCF795FC252084F86300012084F850002E
:103E0000022084F8520004F11000C4F88C0012E083
:103E1000FFF758FB05000ED154F88C0F418842780B
:103E200049BA007862F31F4141EA006030602068BF
:103E3000C08840BAB080284670BD70B515460246AD
:103E40000E46D2F87C130220CC6994F85210012956
:103E500014D0022911D131461046FFF733FB002858
:103E60000BD154F88C1F897801F00F01297021685B
:103E7000097B69702168497BA97070BD0E2580207F
:103E8000E56584F860000A2084F86200102104F1DE
:103E90006300FCF744FC032084F86300700184F89D
:103EA0006400002084F8650084F8660084F8675098
:103EB00084F86800012084F85000022084F8520041
:103EC00004F11000C4F88C00012070BD70B50246EA
:103ED0000220D2F87C33DC6994F85230012B06D0F2
:103EE000022B18D1BDE870401046FFF7EBBA002551
:103EF000E56584F860500A2084F86200102104F11E
:103F00006300FCF70CFC84F86350012004F8500FA8
:103F10000220A070012070BD2DE9F0411546024637
:103F20001F46D2F87C330220069EDC6994F852309A
:103F3000012B06D0022B2DD1BDE8F0411046FFF732
:103F4000C1BAB4F8980010217043E065002084F8ED
:103F500060000A2084F8620004F16300FCF7DFFBD4
:103F60002A2084F86300280E84F86500280C84F861
:103F70006600280A84F8670084F86850300A84F8DC
:103F80006A0084F86B60012004F8500F0220A070D2
:103F90000120E763BDE8F08100207047D0F87C2362
:103FA0000078D2690B2808D101EB810000EBC10039
:103FB00002EB800090F8910008B1002070470120CA
:103FC00070472DE9F8430446D0F87C03089E0F465D
:103FD000C56994F8200360B120780B2809D107EB5C
:103FE000870000EBC70005EB800090F890100129D6
:103FF00002D00220BDE8F8830721297380F89010D1
:10400000A5F8FA70394620460096FFF785FFD4F8E8
:10401000C48340F271204FF00109464309E0D4F80F
:10402000C413A1EB0800B0EB061F0CD894F82003D2
:1040300048B139462046FFF78DFD0128EFD085F8BD
:104040000C900020D6E785F80C90D2E7FEB508AFBB
:1040500097E870008DE87000FFF7BCF90020FEBD06
:104060002DE9F74F82B00878029D4FF0000B0C4607
:1040700085F83803487885F839034888D84605F527
:104080004E75FF2801D94FF4807068800879287137
:10409000487968718879A871C879E871207A28729E
:1040A00029780920092900D02870092A7CD981465D
:1040B000ADF800005FE069462046FEF7BBFE04460F
:1040C0004078042854D12078092801D084F8009041
:1040D00008EB880101EBC80005EB400A20788AF85C
:1040E0000A0060788AF80B00A0788AF80C00E07863
:1040F0008AF80D0020798AF80E0060798AF80F009E
:10410000A0798AF81000E0790AF10A068AF811000D
:10411000207A307200271CE069462046FEF78AFEAE
:1041200004464078052814D17079012802D1B0796D
:10413000022830D02078072801D0072020700AEB11
:10414000C70122461431029800F030F87F1C8346E4
:10415000FFB23079B84204D96888BDF800108842AF
:10416000DAD83079B84211D808F1010000F0FF0820
:10417000B8F1020F04D26888BDF8001088429AD8BE
:104180002879022800D3022040450DD9032005B02C
:10419000BDE8F08F08E0F0790028D0D12078092818
:1041A000CDD084F80090CAE75846F0E7F0B5137810
:1041B0000B7053784B7093788B70D478CC70958853
:1041C0008D800646937900208B71D5B16FF30A0577
:1041D0008D8092884FF40077C2F30A02BA4200D36E
:1041E0003A461543A1F8045096F81D13002904F02F
:1041F000030108D001290BD0E143890700D153B155
:10420000F0BD0320F0E7012902D0E1438907F7D18F
:104210000BB1102BF4D90320F0BD0000FEB5022134
:1042200004468DF8001094F821230020012A01D1C2
:104230000322227022780D26082700250C2A17D287
:10424000DFE802F0061734E81669CC7C848CA2E122
:1042500094F8200300280BD001202070C820FEF71E
:104260009EFD2046FFF7CCF884F81C53C4F8C853D1
:10427000EAE094F8230301280DD0D4F8C803B0F580
:104280007A7F0CD994F81F03401CC0B284F81F0336
:10429000032878D875E084F81F532170D4E00A30E1
:1042A000C4F8C8030A20FEF77AFDCDE0D4F8D42381
:1042B00012B10421204690476420FEF770FD20468D
:1042C000FFF72AF884F81D030520207000212046FE
:1042D000FEF7C2FC607180212046FEF7BDFC207114
:1042E0000146A07994F81D230092CDE9015094F87D
:1042F0001C3380222046FFF7A9FEA07994F81D13F5
:104300000091CDE9015094F81C33617900222046D8
:10431000FFF79CFE98E02046FEF7F6FE8DF80000C1
:104320009DF80000002808D184F8245394F837033E
:10433000012801D0072062E0277085E0D4F8D4235B
:10434000002A46D0012120469047F5E794F83D1316
:10435000204600F0A8F8E0BB092050E094F83F03A5
:104360004FF00A0580060CD50121204600F0A9F87F
:104370008DF800009DF8000018B19DF8000003289A
:1043800062D1257060E03CE0D4F8801309B3C4F832
:104390007C5394F8471300BF04EB8002D2F87823D3
:1043A00012798A4206D104EB8000D0F87803C4F871
:1043B0007C0304E0401C10F0FF00EDD0284600B361
:1043C000816820468847E0B90620207003212046F6
:1043D00000E039E0D4F8D423904735E0D4F87C03EA
:1043E00078B10169204688478DF800009DF80000EB
:1043F00020B19DF80000022803D025E00B2020709A
:1044000022E0267020E0D4F87C03E8B14169204620
:10441000884719E084F821532046FCF721FDD4F8A1
:104420007C0320B1C16820468847C4F87C53D4F887
:10443000D42312B105212046904794F82203012885
:1044400004D02046FEF7FAFF0020FEBD84F8225378
:10445000204600F044F8F7E7002211B1D0F880338D
:1044600013B10222104670470123C0F88033C0F810
:104470007813F7E70246002092F83C338B4202D9CA
:1044800082F824137047022070478278012A06D1EF
:10449000002202740523437441828282C282002278
:1044A0001146FEF73CBC8278012A06D10022027434
:1044B0000923437441828282C28200221146FEF7A0
:1044C0002EBC8278012A06D1002202740323437491
:1044D00041828282C28200221146FEF720BC10B5C2
:1044E0000446FEF7ABFF01212046FEF70BFF00203C
:1044F00010BD000001290AD00548022906D0042970
:1045000003D0052903D1032100E001210170704788
:10451000390000200020704730B58DB015460124C9
:1045200049B1012909D0022910D0032918D0042447
:104530000DB0204630BD0024FAE701466A460E4819
:10454000FFF700F90028F3D1019813E001466A460D
:104550000948FFF7F7F80028EAD1BDF8080009E09C
:1045600001466A460448FFF7EDF80028E0D1BDF89F
:104570000800400A2860DEE77887002030B58FB059
:10458000054600930B46014601240C48FFF729FB22
:1045900068B101AA29460948FFF7D4F89DF811002F
:1045A000042806D0282804D03A2803D101E00024AA
:1045B00000E003240FB0204630BD000078870020C3
:1045C00010B5014601240348FFF7E8FC00B10024C0
:1045D000204610BD7887002030B58FB00546009387
:1045E0000B46014601240E48FFF7EBFC78B101AA07
:1045F00029460B48FFF7A6F89DF8110004280AD0B9
:10460000272806D0282806D03A2805D103E0002420
:1046100002E0022400E003240FB0204630BD000079
:104620007887002070B5044606990A9E049D0D986F
:10463000012916D0E06840F04000E060204600F01C
:104640002BF8A16B1EB321F48031A163012D07D19A
:10465000A16841F00601A160A16841F02001A160BC
:1046600070BDA16B21F48031A163E168094A11405A
:10467000E160E16821F44011E160012803D1E068C4
:1046800040F48010E060204600F006F8DEE741F4D8
:104690008031DAE7BFFFBDFF08B500220D49009267
:1046A000009B5B1C00938B420CD80369002BF7DA4C
:1046B0000092026942F001020261009A521C0092CB
:1046C0008A4201D9032008BD0269D207F5D1002032
:1046D00008BD0000400D0300816821F001018160E8
:1046E0000020704700EB4110064AC0F81025D0F8B2
:1046F000001521F0804141F00041C0F80015002074
:10470000704700000000088008B5D0F8402422F06F
:104710002E020092D20405D4012909D1009941F456
:10472000805103E021B9009921F48051C0F8401470
:10473000002008BD816841F00101816000207047C0
:1047400008B500220C490092009B5B1C00938B4231
:104750000AD80369002BF7DA009210220261009A4E
:10476000521C00928A4201D9032008BD0269D20678
:10477000F5D4002008BD0000400D030018B500234B
:104780000D4A0093009C641C009494420CD8046968
:10479000002CF7DA0093202343EA8111016100998C
:1047A000491C0091914201D9032018BD0169890675
:1047B000F5D4002018BD0000400D0300D0F8080417
:1047C00080B2704708B5D0F840040090C0F3414073
:1047D00008BD406900F00100704718B5002200EBE9
:1047E00041110092D1F80025D1F80035C2F3814281
:1047F0008468DB0FA40600D51BB34FF47A736AB14B
:10480000022A0BD0D1F8002542F08042C1F80025E1
:10481000D0F8100410F47F0F2BD00CE0D1F8002555
:1048200042F08042C1F800258268920609D4C06A2D
:1048300010F47F0F07D0D1F8000540F00040C1F818
:104840000005002018BDD1F8000520F00040C1F897
:104850000005D1F8000540F00040C1F800050098BF
:10486000401C00909842ECD8D1F800050028F6DBF7
:10487000E7E7D1F8000520F00040C1F80005D1F8C5
:10488000000540F00040C1F800050098401C009071
:104890009842D6D8D1F800050028F6DBD1E7000011
:1048A0002DE9F0431E46DDE90785002700EB4114A2
:1048B0007B1EDDF82490C4F8083505B3012D39D0EE
:1048C000022D1CD0032D2ED05FF00107D4F80C353B
:1048D00043F00203C4F80C35D0F8183401F00F0C83
:1048E000012101FA0CF10B43C0F81834816941F041
:1048F0000071816111062AD54FF4004128E040F291
:104900009D43C4F80C35130605D500BFD4F80C350B
:1049100043F4807318E0C36BDB05D7D5D4F80C35AE
:1049200043F0600310E040F29D63C4F80C351306B9
:10493000ECD4CBE740F22523C4F80C351306C5D5DB
:10494000D4F80C3543F4C073C4F80C35BEE700212D
:10495000FFF738FFB8F1020F04D1022802D04FF45C
:10496000003000E000204FF0FE5303EA86534FF47E
:10497000F04606EAC22213434FF4402202EA85427F
:104980001343C9F30A0213430B430343C4F800352E
:10499000032D01D0012D05D1D4F8000540F00050C1
:1049A000C4F800053846BDE8F083D0F8140480B29E
:1049B0007047F8B54C78C56B4FF48073ED0515D58D
:1049C0000D799DB9012A01D06AB10FE0CD790DB101
:1049D000022D0BD100EB4415D5F80C6526F07006BE
:1049E000C5F80C6502E04D79012D0DD04E697EB100
:1049F0000D8977197F1EB7FBF5F7BFB29F4208D923
:104A00001F462B020B6104E02146FFF76BFE6EE0B0
:104A10000127CB781BB10B897B430B6101E0334647
:104A20000E61C3F312056FF0604303EAC7431D43F1
:104A30008B7A4FF0C04606EA43731D4300EB4413E4
:104A4000C3F8105512B1CC68C3F81445D0F8084427
:104A5000D3F8005544F3000425F00055C3F8005581
:104A6000D3F80055641C45EA4474C3F80045D3F8F4
:104A7000004524F080440094CC78002C009C02D0A7
:104A800044F4004401E024F4004444F00044009461
:104A9000C3F800455ABBCA784ABB4A693AB3CB79D6
:104AA00033B1012B0FD0022B02D0032B17D10AE018
:104AB000D21CC36AC2F38F029BB293420FD28269A7
:104AC00042F020020AE0D21CD0F81034C2F38F0268
:104AD0009BB2934203D2826942F0806282610022DB
:104AE00000928A8A93B24A78C96800F035F90020AA
:104AF000F8BD00002DE9F0410025DDF818801746CB
:104B000004462E46C0F8005E806B40F40010A0639F
:104B1000A06B20F40020A063A06B20F48020A06391
:104B2000E06BC00501D5012B04D0D4F8000420F0BF
:104B3000040103E0D4F8000440F004012046C4F866
:104B400000141021FFF71AFE00B101252046FFF7DF
:104B5000F7FD00B101250020411E06E004EB4012E4
:104B6000C2F80815C2F80C65401C8742F6D8A66149
:104B70006161E06BC00506D54FF4007060620C48BF
:104B8000A0620C4804E0802060620B48A0620B48E1
:104B9000C4F80001B8F1000F03D1A06940F0100083
:104BA000A061A06906490843A0612846BDE8F081DC
:104BB000000200010003E00080006000E00040000F
:104BC000080020A3D0F8002422F00302C0F800243B
:104BD000D0F8002401F003031A43C0F8002401298F
:104BE00002D0022903D006E04BF6803101E041F209
:104BF0007071C0F804140020704741698069084052
:104C0000704730B503460846940802F003010022BD
:104C100003F5805303E01D6840F8045B521CA24278
:104C2000F9D300290BD01C680022D50024FA05F323
:104C3000491E521C090400F8013B090CF5D130BD96
:104C400038B50446D0F8400420F02E00009040F41F
:104C50008070C4F84004642004F58864FCF7AAFB63
:104C6000009820F4807020600A20FCF7A3FB00204D
:104C700038BD70B50446C068002520F0C040E06033
:104C8000012901D079B120E0E06840F00050E060F7
:104C90000120FCF78FFB60696D1C10F0010F10D133
:104CA000322DF5D30DE0E06840F08040E060012057
:104CB000FCF780FB60696D1C10F0010F01D0322DF4
:104CC000F5D3322D01D0002070BD012070BD38B564
:104CD000002504460095806820F00100A0601021A6
:104CE0002046FFF74BFD00B101252046FFF728FDC8
:104CF00000B10125002004EB4011D1F8002522F07D
:104D0000802242F08042C1F80025401C0F28F2D9D1
:104D100000204FF47A7304EB4011D1F8002522F4FF
:104D2000004242F04042C1F80025009A521C009215
:104D30009A4203D8D1F80025002AF6DB401C0F2840
:104D4000E9D94FF0FF30C4F814046061A06840F066
:104D50000100A060284638BD10B5029C74B9DB1C68
:104D60009C0800EB0230002300F5805004E000BFF7
:104D700051F8042B02605B1CA342F9D3002010BD44
:104D8000FEE70907090E002804DB00F1E02080F8A7
:104D90000014704700F00F0000F1E02080F8141DAF
:104DA000704770477047000010B504460020E0705F
:104DB000401EE062204601F0F8F908B1042010BD61
:104DC00004F22E2001F0A2F9A0F52A41553901D0B4
:104DD000032010BD94F83000E92805D0EB2814D149
:104DE00094F83200902810D104F1660001F083F9A4
:104DF0000749B1EB002F06D004F1820001F07BF9E6
:104E00000449884201D1002010BD022010BD0000DD
:104E10000046415446415433F0B50022144D134628
:104E200005EB021426685EB10768BE4209D16668C8
:104E30008768BE4205D1A4684669B44204D000E048
:104E40000123521C022AEBD3022A01D069B904E0E3
:104E50004BB9022907D01220F0BD05EB0210808962
:104E6000B0F5807F01D00020F0BD1020F0BD000023
:104E7000748E002030B50021054B0C4603EB011267
:104E80001568854200D11460491C0229F6D330BD53
:104E9000748E00200268490AC06A5289B1FBF2F19F
:104EA000001D04C81AB1914203D3891AF8E7002003
:104EB00070470068084470474269891E921E8A4202
:104EC00001D800207047826A408901FB00207047AA
:104ED0002DE9F04105680F00804606D000F0D4FFB0
:104EE000022809D20120BDE8F081EE6816B1686998
:104EF000B04207D8012605E0411CF4D0696981421F
:104F0000F1D83E4634466869641CA04202D80224A7
:104F1000022E0AD32146404600F0B6FF38B10128E0
:104F2000E1D0411CDFD0B442EDD10020DBE74FF0EF
:104F3000FF3632462146284601F05CF930B957B1B8
:104F400022463946284601F055F920B101280FD0F4
:104F500001242046C7E7EC60D5E90401891E884298
:104F600001D8401E2861287940F001002871F0E73F
:104F70003446EEE72DE9F0410E4624300D68044634
:104F80000B22202101F00AF90020014608272A5CA3
:104F9000401C202A12D92F2A0BD05C2A09D02E2A95
:104FA00001D0B94214D30B2F1ED02E2A1CD10CE0F5
:104FB000401C2B5C2F2BFBD05C2BF9D0284430609D
:104FC00091B12078E5281BD01CE008210B27DEE7F3
:104FD000802A09D20FA300E05B1C93F800C0BCF14B
:104FE000000F04D09445F7D10620BDE8F081A2F16E
:104FF0006103192B01D8203AD2B26254491CC6E78A
:1050000005202070202A01D8042000E00020E07252
:105010000020EAE7222A2B2C3A3B3C3D3E3F5B5DD9
:105020007C7F0000401E022812D20A4901EB0011C9
:105030008889B0F5807F05D008B1401E80B2888194
:1050400010B103E00020FAE700200860002070475C
:1050500002207047748E00202DE9F04104460021A3
:10506000056800F017F9002826D12846E16901F00B
:105070009CF802001FD1206A017899B1C17A01F031
:105080003F01A171C17A09070FD404F124010B2655
:1050900010F8013B11F8017BDB1B761E04D0002BBE
:1050A000F6D002E0042206E02BB10021204600F0F9
:1050B00005F80200D9D01046BDE8F0812DE9F0478F
:1050C000054647690468C0698946203710B1B7F5BD
:1050D000001F02D30420BDE8F087F90560D1401C11
:1050E000E861A9694FF0000829B16089401E10EA03
:1050F000572F05D054E02089B0EB571F1DD94FE042
:10510000284600F0C1FE064601281BD9701C33D08A
:105110006069B0423ED8B9F1000F0ED02846A969A7
:10512000FFF7D6FE06000BD0012E0BD0701C23D04B
:10513000204601F073F9F8B906E0C5F81C80C9E70C
:105140000720C8E70220C6E74FF40072002104F1EF
:10515000300001F023F84FF0000831462046FFF7F9
:10516000ABFE4FF00109E0620DE000BF84F8039050
:10517000204601F053F908B10120ACE7E06A08F1DC
:105180000108401CE06261894145EFD8E16AA1EB6A
:105190000800E06231462046AE61FFF78DFEE8610F
:1051A000C7F30800204430306F612862002092E786
:1051B00070B504460E460420256821E0284600F01C
:1051C000F4FF10BB226A1178B1B1D27AE52902F05E
:1051D0003F02A2710AD02E2908D00F2A06D022F051
:1051E000200108290AD00021B14210D00021204618
:1051F000FFF764FF20B108E0042006E00121F3E797
:10520000E1690029DAD1002801D00021E16170BDF7
:1052100070B504460021066800F03CF80DE0304609
:10522000E16900F0C2FF50B9206A0078E52809D092
:1052300040B101212046FFF741FF0028EFD00428AC
:1052400007D007E03046E16900F0AFFF050003D06A
:105250000FE0072005460CE020220021206A00F024
:105260009DFF0B2204F12401206A00F08DFF012034
:10527000F070284670BD70B505680446C1692846BF
:1052800000F093FF002804D1226AE521117001216A
:10529000E97070BD2DE9F04107680E460546B1F58D
:1052A000001F36D2F00634D16E61AC6824B938786C
:1052B000032805D37C6A1CB178894FEA402812E0A4
:1052C0003889B0EB561F24D9786A12E0284600F0DE
:1052D000DBFD0446401C1AD0022C1AD37869A04288
:1052E00017D9A6EB080646452146EFD23846FFF708
:1052F000E3FDC5E9064060B100EB5620E861C6F366
:1053000008003844303028620020BDE8F0810120D8
:10531000FBE70220F9E70000084910B50B5C00220A
:1053200053B901220A540A1801EB8000127A40682E
:105330000168104688470246104610BD948E002032
:1053400030B4054C231804EB80001B7A40680469D4
:105350001846A44630BC6047948E002030B4054DFA
:105360002C1805EB8000247A406885682046AC46FE
:1053700030BC6047948E0020044A111802EB800074
:10538000097A40684268084610470000948E002061
:1053900030B4054D2C1805EB8000247A4068C568B0
:1053A0002046AC4630BC6047948E002038B5044699
:1053B00000F05EFA00280CD16946204601F057F84B
:1053C000002806D12069FFF72DFE002801D1002119
:1053D000216038BD38B50446694601F048F8002818
:1053E00008D1216921B10846FFF71CFE002801D130
:1053F0000021216038BD00002DE9F74181B09046C1
:1054000002980090684600F0D1FD040003D50B20FF
:1054100004B0BDE8F0810D4E002756F824501DB1B0
:105420002846FFF727FD2F700198002800D007704D
:1054300046F8240002D0B8F1010F01D00020E7E7C0
:10544000002201A902A800F0AFFBE1E75000002014
:105450002DE9F74394B005000BD002F03F06324629
:10546000694615A800F0A0FB04004FF0000804D026
:10547000ECE0092017B0BDE8F0830098049004A880
:10548000159900F0BBFC04000ED19DF83F0000060A
:1054900001D5062408E0700801D0012100E00021B8
:1054A00004A8FFF7B9FC044616F01C0F5DD04FF0BE
:1054B0000109C4B1042C10D10020674902E0401C4E
:1054C000022804D201EB00121268002AF7D1022848
:1054D00007D004A8FFF79CFE044646F008065CB11E
:1054E000B4E01224B2E09DF8160010F0110F47D17D
:1054F000700701D50824A9E0300747D500F023FD47
:1055000007460C9839460E3000F037FF0C983946A4
:10551000163000F032FF0C982021C1720C990098CF
:1055200000F0D6FD074600220C99009800F011FF0C
:105530000C9800211C3000F020FF009981F80390A6
:1055400017B3D1F82C900022394604A800F0C7FE0A
:1055500004007BD14946009800F027FE0400009823
:10556000A7F10107C7600DD070E0ECBB9DF81600F5
:10557000C10601D5042469E0B10703D5C00701D0F5
:10558000072463E0300701D546F040060098C06A62
:1055900068620C98A862700801D0012100E0002127
:1055A00004A800F021FD2861B8B30C99009800F020
:1055B0008FFDA8600C981C3000F09DFDC5F82C8074
:1055C000E86000992960009905F130004FF40072FD
:1055D000C988A9802E7585F81580C5F8208000211E
:1055E0008146C5F8188000E030E000F0D7FDB00635
:1055F0002ED5EE6866B3AE610098A968408947026F
:105600000FE0284600F040FC0146012800D80224A3
:10561000481C03D0F61B24B105E01BE00124F61B57
:1056200001E0BE42EDD8E96184B9F00510D00098E0
:10563000FFF742FC70B100EB56222A62009801236A
:1056400049464078FFF78AFE10B10124C5F8008072
:1056500020460FE70224F9E7748E002073B582B06C
:10566000050009D00022694603A800F09DFA040055
:105670004FF0000603D02FE0092004B070BD009960
:1056800029602846039900F0B9FB040014D195F86D
:105690002F00000607D4A879C0061CD5296A0098F7
:1056A00000F016FDA8600098C188A9802846002156
:1056B000FFF7F0FD040002D0042C0CD00CE0A86829
:1056C00038B10021284600F08FFC286128B9122447
:1056D00002E02E6101E005242E602046CDE72DE991
:1056E000FE4F88460021196099461546044602A9D6
:1056F00000F0BDFE002812D1607D00280FD1207D72
:10570000C0070BD0E168A0690127081A4FF0020A10
:1057100004F1300B854200D9054684E00720BDE83E
:10572000FE8FA169C80566D102984089401E10EA23
:10573000512611D129B1E06A28B12046FFF7AAFB12
:1057400005E0A06803E02046E16900F09DFB022827
:105750001BD3411C4AD0E061E1690298FFF7ACFB22
:1057600098B130440190680A009025D0029932180F
:105770004889824201D9801B0090DDE900324878D7
:105780004146FFF7EBFD88BB03E084F815A002203B
:10579000C5E7207D00060CD5216A0198081A0099FA
:1057A000884206D208EB40204FF40072594600F0C0
:1057B000EBFC009846022CE0226A0198824218D045
:1057C000207D00060AD50298012359464078FFF74C
:1057D000DFFD58B9207D00F07F002075029801237D
:1057E00059464078019AFFF7B9FD10B1677501205D
:1057F00095E701982062208BC0F30800C0F5007681
:10580000AE4200D92E46011932464046303100F0F2
:10581000BBFCA069B0443044A061D9F800008119F4
:10582000AD1BC9F80010002D7FF47BAF002076E798
:1058300038B50C460546694600F019FE002813D11C
:10584000014628468CB1FFF7B3FC042801D000289C
:105850000AD12146284600F078FB00212846FFF7B0
:105860002DFC042800D1002038BDFFF713FD38BD02
:10587000F8B50446694600F0FAFD00280ED1217DF6
:105880004A060BD508060ED50098226A01234078F7
:1058900004F13001FFF77CFD08B10120F8BD207D47
:1058A00000F07F00207500F04EFB0646616A00980C
:1058B00000F07BFC0028F1D1A56A2946E87A40F087
:1058C0002000E872A268206800F043FD05F11C008A
:1058D000E16800F052FD314605F1160000F04DFD83
:1058E000002105F1120000F050FD00980121C17067
:1058F00000F050FD217D01F0BF012175F8BD11B50B
:105900009DB002220DA91DA800F04EF90D9900913D
:10591000002810D168461D9900F070FA00280AD1BD
:1059200002216846FFF778FA002804D19DF82F007D
:10593000000602D506201EB010BD9DF80600C00767
:1059400001D00720F7E708990D9800F0C1FB044645
:105950009DF80600C00610D50D980F9000211194F7
:105960000FA8FFF797FC0028E5D100210FA8FFF74B
:105970001FFC0028E5D00428DDD16846FFF77BFC3A
:105980000028D8D134B100222146684600F0A7FC97
:105990000028D0D10D9800F0FDFCCCE72DE9FE4F9A
:1059A00004460020884618609946154602A92046FC
:1059B00000F05DFD002806D1607D002803D1207D28
:1059C000800702D40720BDE8FE8FA0690127421995
:1059D0004FF0020A04F1300B824200D2C5439BE033
:1059E000A169C80575D102984089401E10EA512668
:1059F00018D129B1E06A38B12046FFF74BFA07E029
:105A0000A06838B9002100E0E1692046FFF760FA9C
:105A100000287DD001282DD0411C54D0E061A16820
:105A200001B9A060207D00060BD50298226A0123EF
:105A300040785946FFF7ACFCA0BB207D00F07F000A
:105A40002075E1690298FFF737FA98B13044019068
:105A5000680A009027D03218029841898A4201D9F9
:105A6000891B0091DDE9003240784146FFF790FC48
:105A7000C0B903E084F815A00220A4E7216A0198C8
:105A8000081A009988420AD208EB40214FF40072AC
:105A9000584600F079FB207D00F07F0020750098CB
:105AA000460228E00FE0216A019881420FD0E168A8
:105AB000A06988420BD20298012359464078019A86
:105AC000FFF74CFC18B1677501207CE701E00198F5
:105AD0002062208BC0F30800C0F50076AE4200D9EA
